0107032025000030HMENON DE ASSIS                         000000093543A
0107032025108936FLAVIO SEVERINO DA SILVA                000000093543A
0107032025000035ALEXANDRO CONCEIÇÃO DOS SANTOS          000000093543A
0107032025000055MANOEL FERNANDES DA SILVA               000000093543A
0107032025000056MANOEL ANDRADE DA SILVA                 000000193543A
0110012025000013ADALBERTO GOMES DA SILVA                000000070652A
0123032026000001MANUEL FORTUNATO DOS SANTOS             000000093543A
0123032026000002JOSÉ RONALDO PAULINO DA SILVA           000000093543A
0123032026000030WELLINGTON HONORIO DOS SANTOS           000000093543A
0123032026000031CARLOS ALBERTO DE SOUSA JATAY           000000093543A
0123032026000033EUFRASIO BRITO DA SILVA                 000000093543A
0123032026000034LUIZ CLAUDIO DA SILVA                   000000093543A
0182032025000003LUIZ CARLOS PEREIRA DA COSTA            000000137166M
0182032025000010IVONALDO SOARES DO NASCIMENTO           000000073732M
0182032025000012JAIRO DA CONCEIÇÃO                      000000141327M
