1010715052025052025000030HMENON DE ASSIS                         000000093543A
1010715052025052025108936ALEXANDRO CONCEICAO DOS SANTOS          000000093543A
1010715052025052025000055MANOEL FERNANDES DA SILVA               000000093543A

1011015052025052025000013ADALBERTO GOMES DA SILVA                000000070652A

1012315052025052025000002JOSE RONALDO PAULINO DA SILVA           000000093543A
1012315052025052025000030WELLINGTON HONORIO DOS SANTOS           000000093543A
1012315052025052025000031CARLOS ALBERTO DE SOUSA JATAY           000000093543A
1012315052025052025000033EUFRASIO BRITO DA SILVA                 000000093543A
1012315052025052025000034LUIZ CLAUDIO DA SILVA                   000000093543A

1012415052025052025000002ANTONIO GOMES DE SOUSA                  000000043404A
1012415052025052025000003ALEX SANTOS MENEZES                     000000093543A
1012415052025052025000007JOSE AILTON AMARANTE VICENTE            000000093543A

1013815052025052025000003ANTONIO GONCALVES CELESTINO             000000093543A
1013815052025052025000029RICARDO OLIVEIRA NASCIMENTO             000000093543A
1013815052025052025000036PEDRO CESARIO RODRIGUES NETO            000000093543A
1013815052025052025000037LEANDRO JUNIOR FLORENCIO DA SILVA       000000093543A

1014015052025052025000001EDVAL GOMES DA SILVA                    000000137689A
1014015052025052025000002SONIA MOURA ANDRADE DOS SANTOS          000000093543A

1014515052025052025000002PEDRO CALIXTO DA SILVA FILHO            000000093543A
1014515052025052025000003GUILHERME JORGE DOS SANTOS              000000093543A
1014515052025052025000027NATANAEL JUNIO FIRMINO DOS SANTOS       000000093543A
1014515052025052025000037ANTONIO MARCOS DOS SANTOS               000000093543A

1014615052025052025000002JOAO GOMES RODRIGUES                    000000070644A
1014615052025052025085295WELLINGTON DA SILVA CARDOSO             000000070644A

1014815052025052025000006JOSE MAXIMINO DE FRANCA SEGUNDO         000000093543A
1014815052025052025104725JOSE BEZERRA DE CARVALHO                000000093543A

1015915052025052025000034RIZOMAR FERREIRA SILVA                  000000093543A
1015915052025052025046652COSMO SILVA FARIAS                      000000093543A
1015915052025052025000044ROZIVALDO FRANCISCO DOS SANTOS          000000093543A

1016215052025052025000003SILVAN FLORENCIO DA CRUZ                000000098407A
1016215052025052025000017JONAS PEREIRA DA SILVA                  000000093543A
1016215052025052025000025MANOEL HORACIO PEREIRA NETO             000000093543A
1016215052025052025000033ANTONIO DELFINO FILHO                   000000093543A

1017015052025052025000058ELIAS BENTO DOS SANTOS                  000000093543A

1017115052025052025000001MOISES JOSE DE MACEDO NETO              000000099436A
1017115052025052025104637FRANCISCO MARCILIO DE PAIVA FARIAS      000000093543A

1017215052025052025000014SEVERINO TITO PEREIRA                   000000093543A

1017315052025052025000010WALMIR DA COSTA BEZERRA                 000000093543A

1017415052025052025000002LUIS ALVES ESTEVES                      000000093543A
1017415052025052025004021EDSON SILVA DO NASCIMENTO               000000093543A
1017415052025052025000003EZEQUIEL CARVALHO GOMES                 000000093543A

1017515052025052025000012RICARDO MASCENA DA SILVA                000000093543A
1017515052025052025000013ROBERTO JOSE DE MELO                    000000093543A
1017515052025052025000016GERALDO CLEMENTINO DOS SANTOS           000000093543A
1017515052025052025000025ALISSON JOSE DE LIMA FERREIRA           000000093543A
1017515052025052025000026ABDENEGO SENA ALVES                     000000093543A

1017615052025052025000001GERALDO MARQUES DOS SANTOS              000000111406A
1017615052025052025000002MARIVALDO CAVALCANTE DA SILVA           000000093543A
1017615052025052025000012JUAREZ DA SILVEIRA DAVID                000000093543A
1017615052025052025000015FELIZALDO ALMEIDA DA SILVA              000000093543A

1018015052025052025000001JOSE MACHADO DA SILVA                   000000093543A

1018215052025052025000003LUIZ CARLOS PEREIRA DA COSTA            000000046772A
1018215052025052025000010IVONALDO SOARES DO NASCIMENTO           000000046772A
1018215052025052025000012JAIRO DA CONCEICAO                      000000046772A

1018315052025052025000001MANFREDO VIRGINIO ANSELMO DE AGUIAR     000000056185A

1018515052025052025000003RACHED LINS ALVES                       000000065221A

1018615052025052025000001PAULO ARAUJO SILVA                      000000074834A
1018615052025052025000002JOAO PAULO ARAUJO SILVA                 000000074834A
1018615052025052025000003JOSE CARLOS MONTEIRO DE OLIVEIRA        000000074834A
1018615052025052025000004JOSE GIZALDO MATIAS DO NASCIMENTO       000000074834A

1018815052025052025000001FRANCISCO ELIZEU DA COSTA               000000102135A
1018815052025052025000003FRANCISCO GILBERTO MARANHAO             000000102135A
1018815052025052025000004JOSE IRANILDO DE SOUSA                  000000102135A
1018815052025052025000005ANTONIO IVANEUDO DE SOUSA               000000081197A

1018915052025052025000003MARCUS VINICIUS SANTOS SILVA            000000074050A

1019015052025052025000001ANTONIO BATISTA DA SILVA                000000093543A
1019015052025052025000002NELSON DA SILVA SANTOS                  000000092564A
1019015052025052025000004VANDERLEI DA SILVA                      000000092564A
1019015052025052025000005SEBASTIAO LINS DE SOUZA                 000000092564A
1019015052025052025000006NIVALDO LUIZ DA SILVA                   000000092564A

1210115052025052025000016ANTONIO HELIO DA SILVA                  000000093543A

1210215052025052025000003PAULO GOMES BARBOSA                     000000093543A
1210215052025052025000021ANTONIO CARLOS PAULINO                  000000093543A
1210215052025052025000026LUCAS VENANCIO DE PAULA                 000000093543A
1210215052025052025000029IGOR DE PAULA SILVEIRA                  000000093543A

1210815052025052025000001MARIO GOMES DA SILVA                    000000120242A
1210815052025052025103848ADILSON LUIZ DA COSTA                   000000120242A
1210815052025052025000003ROBERTO MANUEL MARQUES                  000000100777A
1210815052025052025103850EZENILDO DA SILVA                       000000100777A
1210815052025052025000006CARLOS HENRIQUE ROSA DE OLIVEIRA        000000108268A

1211415052025052025000005DAGOBERTO ALVES AMORIM                  000000094650A
1211415052025052025104241MAURO LUIZ TEIXEIRA RODRIGUES           000000081197A
1211415052025052025000008JOSE CARLOS DIAS                        000000094650A
1211415052025052025500519JULIO DE JESUS RIBEIRO                  000000094650A
1211415052025052025000024NAILTON JESUS SILVA                     000000091925A

1211515052025052025000019ANTONIO LEONARDO DE FIGUEREDO           000000093543A
1211515052025052025000024FERNANDO HENRIQUE BIRINO                000000093543A
1211515052025052025000036CRISTIANO OLIVEIRA DE FIGUEIREDO JUNIOR 000000093543A

1211715052025052025000041FRANCISCO ANTONIO DO NASCIMENTO         000000093543A
1211715052025052025000044GILBERTO FERREIRA DA SILVA              000000093543A
1211715052025052025000045JOSUE PETRONILIO DOS SANTOS             000000093543A

1211815052025052025000002IVANILDO DOS SANTOS                     000000093543A
1211815052025052025000025VITOR MANUEL DIAS                       000000093543A

1212715052025052025000032MAMEDE ARAUJO DE MOURA                  000000093543A
1212715052025052025000044ERICK DA ANUNCIACAO SANTOS              000000093543A
1212715052025052025000045ELBO MARTINS SANTOS                     000000093543A

1213615052025052025000022JOAO BEZERRA DA SILVA                   000000102112A
1213615052025052025104633MARCOS ANTONIO FERREIRA CRUZ            000000093543A
1213615052025052025000029ERONILSON BRAZ DE LIMA                  000000093543A
1213615052025052025104674LEANDRO BENICIO RIBEIRO DE LIMA         000000093543A
1213615052025052025000034ANTONIO CARLOS DE SOUSA MIRANDA TAVARES 000000093543A

1213715052025052025000001JOSE DE OLIVEIRA                        000000104125A

1213815052025052025000002JOSE ORLANDO RODRIGUES FREIRE           000000103451A
1213815052025052025512704MARIA DAS GRACAS SILVA                  000000098497A
1213815052025052025000003JOSIL LUCIANO DA SILVA                  000000098497A

1215815052025052025000004PEDRO TEIXEIRA DO NASCIMENTO            000000146381A

1216115052025052025000001JOSE ERALDO RAMOS                       000000093543A

1217015052025052025000040RIVAILDO PAULO DA SILVA                 000000093543A
1217015052025052025000047JOSIVAN FRANCISCO BERTO                 000000093543A
1217015052025052025000052JOSIVALDO FRANCISCO DE ARRUDA           000000043543A
1217015052025052025000053RONILDO FARIAS DA SILVA                 000000093543A

1217115052025052025000014SEVERINO JOAO DOS SANTOS                000000098557A
1217115052025052025101893EDRIANO LIMA DA SILVA                   000000093543A

1217315052025052025000001ERNANDE BARBOSA DA SILVA                000000108510A
1217315052025052025000027EDILSON RENATO DA SILVA                 000000093543A
1217315052025052025104219WAGNE DAVID PESSOA                      000000093543A
1217315052025052025000058MIQUEIAS GOMES DE SOUZA                 000000093543A

1218415052025052025000001PEDRO COSTA RAIMUNDO                    000000054311A
